:020000020000FC
:1000000010E005E04EE147BB4FE700E02BD0202E8B
:1000100001E028D0302E02E025D0402E03E022D08F
:10002000502E80E088BB82E088BB22BA10E005E059
:100030002CD080E088BB84E088BB32BA10E005E0B9
:1000400024D080E088BB88E088BB42BA10E005E09D
:100050001CD080E088BB80E188BB52BA10E005E08C
:1000600014D0DFCFEF93FF931F9310E0E0E8F0E0B0
:10007000E00FF11F049100001F91FF91FF9108957F
:100080003F065B4F666DFD077F6F8F939F93802FB9
:10009000912F05D00197E9F79F918F9108958F9344
:1000A0009F9397E080ED0197F1F79F918F910895CD
:00000001FF
