:020000020000FC
:100000004EE147BB4FE741BB00E0202E01E0302E20
:1000100002E0402E03E0502E80E088BB82E088BBE7
:1000200000E027D0202E22BA10E005E035D080E095
:1000300088BB84E088BB01E01CD0302E32BA10E0CF
:1000400005E02AD080E088BB88E088BB02E011D0C0
:10005000402E42BA10E005E01FD080E088BB80E16E
:1000600088BB03E006D0502E52BA10E005E014D051
:10007000D3CFEF93FF931F9310E0EEE8F0E0E00F93
:10008000F11F049100001F91FF91FF9108953F0619
:100090005B4F666DFD077F6F8F939F93802F912F2E
:1000A00005D00197E9F79F918F9108958F939F93C2
:0E00B00097E080ED0197F1F79F918F910895F1
:00000001FF
