:020000020000FC
:0200000006C038
:1000080000C00394189510E005E04EE147BB4FE7A8
:1000180041BBC00101960C018C0133E028EE58D099
:10002800A0E00A171A07A9F71124002421968E01C7
:100038005ED080E088BB82E088BB022D23D002BB63
:1000480010E005E032D080E088BB84E088BB032D57
:1000580019D002BB10E005E028D080E088BB88E01A
:1000680088BB042D0FD002BB10E005E01ED080E055
:1000780088BB80E188BB052D05D002BB10E005E0F8
:1000880014D0C7CFEF93FF931F9310E0E8EAF0E096
:10009800E00FF11F049100001F91FF91FF91089557
:1000A8003F065B4F666DFD077F6F8F939F93802F91
:1000B800912F05D00197E9F79F918F9108958F931C
:1000C8009F9397E080ED0197F1F79F918F910895A5
:1000D8008F939F93882799270217130720F0021BF5
:1000E800130B0196F9CF9C019F918F91089533E0EE
:1000F80028EEEEDF622F30E024E6EADF722F30E0F0
:100108002AE0E6DF822F902F592E482E372E262EF2
:02011800089548
:00000001FF
