:020000020000FC
:020000002AC014
:0200080012C024
:1000160000C00F930FB70F9301E0000E0027101ECC
:100026000F910FBF0F9118950F931F932F933F9327
:10003600002D112D1795079542D0202E312E422ED8
:10004600532E002411243F912F911F910F91189543
:1000560000E20BBF01E000BD0CE00EBD0AE70BBDE0
:1000660002E10ABD00E409BF02E007BB0FEF01BBD6
:1000760000E0202E302E402E502E789400E108BB52
:10008600022D4CD002BB05E010E053D008E008BBBF
:10009600032D44D002BB05E010E04BD004E008BBC2
:1000A600042D3CD002BB05E010E043D002E008BBC3
:1000B600052D34D002BB05E010E03BD0DFCF6F93B7
:1000C6007F938F939F9328EE33E013D0922F24E6ED
:1000D60030E00FD0822F2AE030E00BD0722F602F55
:1000E600062F172F282F392F9F918F917F916F9170
:1000F60008958F939F93882799270217130720F057
:10010600021B130B0196F9CF282F392F9F918F9140
:1001160008953F065B4F666D7D07FF6FEF93FF9374
:10012600E8E1F1E0E00F0027F01F0491FF91EF9165
:1001360008958F939F93802F912F05D00197E9F70C
:100146009F918F9108958F939F9380ED97E00197EC
:08015600F1F79F918F910895CC
:00000001FF
