:020000020000FC
:1000000010E005E04EE147BB4FE741BB80E088BB15
:1000100082E088BB022D3AD002BB10E005E049D057
:1000200080E088BB84E088BB032D30D002BB10E0A9
:1000300005E03FD080E088BB88E088BB042D26D057
:1000400002BB10E005E035D080E088BB80E188BBD2
:10005000052D1CD002BB10E005E02BD05394052DDC
:100060000A30A1F655244394042D0A3079F644242D
:100070003394032D0A3051F633242394022D0A3091
:1000800029F62224332444245524C0CFEF93FF9330
:100090001F9310E0E8EAF0E0E00FF11F0491000088
:1000A0001F91FF91FF9108953F065B4F666DFD071D
:1000B0007F6F8F939F93802F912F05D00197E9F742
:1000C0009F918F9108958F939F9397E080ED019773
:0800D000F1F79F918F91089553
:00000001FF
