:020000020000FC
:020000003DC001
:0200080028C00E
:1000160000C09F938F934F931F930F932F933F93FC
:100026003FB73F93C00101960C0122E030E08C01FE
:1000360074D040E01417040719F411960024112413
:100046003F913FBF3F912F910F911F914F918F91FC
:100056009F9118950F931F932F933F933FB73F930D
:100066008D0145D0BB27AA273F913FBF3F912F91D6
:100076001F910F91189500E007BB00E20BBF01E04E
:1000860000BD0CE00EBD1AE702E11BBD0ABD00E48F
:1000960009BF4EE147BB4FE741BB789480E088BB80
:1000A60082E088BB022D4DD002BB05E010E054D0A3
:1000B60080E088BB84E088BB032D43D002BB05E00B
:1000C60010E04AD080E088BB88E088BB042D39D098
:1000D60002BB05E010E040D080E088BB80E188BB31
:1000E600052D2FD002BB05E010E036D0D7CF6F9399
:1000F6007F938F939F9328EE33E00FD0222E24E632
:1001060030E00BD0322E2AE030E007D0422E502EBF
:100116009F918F917F916F9108958F939F938827D9
:1001260099270217130720F0021B130B0196F9CF2C
:100136009C019F918F9108953F065B4F666D7D07E9
:10014600FF6FEF93FF931127EEE3F1E0E00FF11F4E
:100156000491FF91EF9108958F939F93C80105D065
:100166000197E9F79F918F9108958F939F9380ED63
:0C01760097E00197F1F79F918F91089599
:00000001FF
