:020000020000FC
:020000002CC012
:0200080017C01F
:1000160000C09F938F938FB78F93D395D23021F4DF
:10002600C00101960C01DD278F918FBF8F919F91A3
:1000360018950F931F932F933F933FB73F938001DC
:1000460045D0112400243F913FBF3F912F911F912E
:100056000F91189500E007BB00E20BBF01E000BD61
:100066000CE00EBD1AE702E11BBD0ABD00E409BFA4
:100076004FE741BB4EE147BB789480E088BB022D39
:100086004FD002BB82E088BB10E005E056D080E08E
:1000960088BB032D45D002BB84E088BB10E005E099
:1000A6004CD080E088BB042D3BD002BB88E088BBE7
:1000B60010E005E042D080E088BB052D31D002BBC0
:1000C60080E188BB10E005E038D0D7CF6F937F93EF
:1000D6008F939F9333E028EE0FD0222E30E024E654
:1000E6000BD0322E30E02AE007D0422E502E9F91C0
:1000F6008F917F916F9108958F939F93882799276A
:100106000217130720F00196021B130BF9CF9C016F
:100116009F918F9108953F065B4F666D7D07FF6F38
:10012600EF93FF931F931127ECE1F1E0E00FF11F2E
:1001360004911F91FF91EF9108958F939F93C801AA
:1001460005D00197E9F79F918F9108958F939F931B
:0E01560097E080ED0197F1F79F918F9108954A
:00000001FF
